:020000040800F2
:1000000050140020A90200088707000859060008BC
:100010008307000885050008170A00080000000093
:10002000000000000000000000000000AD07000814
:10003000890500080000000089070008C5080008BD
:10004000C3020008C3020008C3020008C30200087C
:10005000C3020008C3020008C3020008C30200086C
:10006000C3020008C3020008C3020008C30200085C
:10007000C3020008C3020008C3020008C30200084C
:10008000C3020008C3020008C3020008C30200083C
:10009000C3020008C3020008C3020008C30200082C
:1000A000C3020008C3020008C3020008C30200081C
:1000B000C3020008C3020008C3020008C30200080C
:1000C000C3020008C3020008C3020008C3020008FC
:1000D000C302000831090008C3020008C302000877
:1000E000C3020008C3020008C3020008C3020008DC
:1000F000C3020008C3020008C3020008C3020008CC
:10010000C3020008C3020008C3020008C3020008BB
:10011000C3020008C3020008C3020008C3020008AB
:10012000C3020008C3020008C3020008C30200089B
:10013000C3020008C3020008C3020008C30200088B
:10014000C3020008C3020008C3020008C30200087B
:10015000C3020008C3020008C3020008C30200086B
:10016000C3020008C3020008C3020008C30200085B
:10017000C3020008C3020008C3020008C30200084B
:10018000C3020008C302000800F002F800F063F8A0
:100190000AA090E8000C82448344AAF10107DA45E2
:1001A00001D100F058F8AFF2090EBAE80F0013F0D1
:1001B000010F18BFFB1A43F0010318478414000015
:1001C000A41400000A444FF0000C10F8013B13F097
:1001D000070408BF10F8014B1D1108BF10F8015BA0
:1001E000641E05D010F8016B641E01F8016BF9D193
:1001F00013F0080F1EBF10F8014BAD1C0C1B09D1EA
:100200006D1E58BF01F801CBFAD505E014F8016B5B
:1002100001F8016B6D1EF9D59142D6D370470000ED
:100220000023002400250026103A28BF78C1FBD8FF
:10023000520728BF30C148BF0B607047642900F0E7
:100240009D80002070471FB501F0F5F900F0E7F838
:100250001FBD10B510BD00F066F91146FFF7F3FFA2
:1002600000F08AFE00F084F903B4FFF7F2FF03BC4C
:1002700000F0D3FB0B49D1F800C04A685CF8043B9E
:100280001068184442F8040B8C4528BFA1F1DC0C1F
:100290008A4228BFA1F1DC02C1F800C04A6020F008
:1002A00000407047E80D0020094880470948004792
:1002B000FEE7FEE7FEE7FEE7FEE7FEE7FEE7FEE716
:1002C000FEE7FEE704480549054A064B7047000073
:1002D000C908000889010008500E002050140020B1
:1002E0005010002050100020704700000FB41CB5C3
:1002F000074B06AA7B4469460090059800F0FBF87E
:100300000020694600F00AF91CBC5DF814FB0000EF
:10031000250200002DE9F0410E460446002020622F
:100320002046E168884730B3252805D0D4E901216B
:100330009047206A401CF2E7E16820460027884782
:10034000050018D0A5F14100192802D820354FF436
:1003500000673246294620462760FFF76FFF40B10D
:10036000012804D0F61D26F007060836D8E7361D0A
:10037000D6E72846DAE7206ABDE8F0812DE9F041AA
:100380000646002410687529314616A510D0AFF333
:100390000080002802DA404213A507E031688A078E
:1003A00001D512A502E0490704D511A5012401E0F9
:1003B000AFF3008000210A2206F1240709E0B0FB18
:1003C000F2FCB0FBF2F302FB1C003030785418460C
:1003D000491C0028F3D123462A463046BDE8F041A7
:1003E00000F02AB8000000002D0000002B000000E3
:1003F000200000000B4910B5A1F17C020A4CC2E9B3
:100400003712372106E000EB104342F82130074B4A
:1004100000FB03400B1EA1F10101F4DC10BD012023
:10042000E8E70000880D0020E119D666CD0D010037
:1004300070477047704770472DE9F0470D46994661
:100440009246044600F124080168880604D5E06954
:1004500021F01001216000E00120A84201DD471BCE
:1004600000E00027A1697A1902EB0900081AA061CF
:100470002078C00602D42046AFF30080002608E0B2
:10048000D4E901211AF806009047206A401C761C26
:1004900020624E45F4DB2078C0060AD52046AFF333
:1004A000008006E0D4E9012130209047206A401CFA
:1004B0002062381EA7F10107F4DC07E0D4E901212E
:1004C00018F805009047206A401C2062281EA5F1FC
:1004D0000105F3DC2046AFF300802078000602D54A
:1004E0000220BDE8F0870120FBE7000001694A1CFB
:1004F00002610878704700B58FB0CDE90131002165
:10050000059105497944CDE9031011466846FFF786
:1005100001FF0FB000BD0000E5FFFFFF0A6802F811
:10052000010B0A607047754600F028F8AE460500DA
:100530006946534620F00700854618B020B5FFF7FE
:10054000C1FEBDE820404FF000064FF000074FF01D
:1005500000084FF0000B21F00701AC46ACE8C009E1
:10056000ACE8C009ACE8C009ACE8C0098D467047EA
:100570000446AFF300802046FFF776FE0048704740
:10058000F00D002000BFFEE7704701B502E00098C3
:10059000401E009000980028F9D108BDF0B50A4629
:1005A00000210023002400BF3DE0012505FA01F3EE
:1005B000156805EA03049C4234D105684F00032600
:1005C000BE40B543056015794E00B5400668354319
:1005D00005601579012D02D01579022D16D1856897
:1005E0004F000326BE40B543856055794E00B540A7
:1005F000866835438560456801268E40B543456071
:10060000456896798E40B6B235434560C5684F005F
:100610000326BE40B543C560D5794E00B540C668D7
:100620003543C560491C1029BFD3F0BD02460020E8
:1006300013690B400BB1012000E000207047024617
:10064000002053690B400BB1012000E000207047EF
:10065000418370470183704700BFFEE71CB501214D
:10066000342000F093F83120009000208DF8040031
:1006700003208DF8050001208DF807006946114818
:10068000FFF78CFF4FF44040009000208DF80400ED
:1006900003208DF8050001208DF8070069460A48FF
:1006A000FFF77CFF0F20009000208DF8040003204E
:1006B0008DF8050001208DF8070069460348FFF713
:1006C0006DFF1CBD001002400008024000140240F3
:1006D0002DE9F0410446342000F031F8342000F0D8
:1006E0002EF8002521E000271BE0002615E007F189
:1006F0008001C8B200F023F806F1800101EBC501CA
:10070000C8B200F01CF814F8010B00F029F814F836
:10071000010B00F025F8701CC6B2082EE7DB781C30
:10072000C7B2202FE1DB681CC5B2022DDBDB36200F
:1007300000F005F8302000F002F8BDE8F08110B5B7
:100740000446012000F0FCFAF82000F0C5FC04F09B
:10075000F00000F0C1FC2107080E00F0BDFC10BD48
:1007600010B50446012000F0EBFAFA2000F0B4FCCA
:1007700004F0F00000F0B0FC2107080E00F0ACFC23
:1007800010BD00BFFEE770477047000029B1064A60
:1007900012680243044B1A6004E0034A1268824361
:1007A000014B1A607047000030380240704700006B
:1007B0000CB50020019000903448006840F480306F
:1007C0003249086000BF3148006800F400300090F2
:1007D0000198401C0190009818B90198B0F5A04FFD
:1007E000F1D12A48006800F4003010B101200090D7
:1007F00001E0002000900098012846D123484030B5
:10080000006840F08050214940310860204800686D
:1008100040F440401E4908601C48083000681B49ED
:10082000083108600846006840F400400860084647
:10083000006840F4A05008601648091F0860081FAF
:10084000006840F08070091F086000BF0F48006812
:1008500000F000700028F9D040F205700E490860E1
:100860000A480830006820F0030008490831086091
:100870000846006840F00200086000BF03480830E6
:10088000006800F00C000828F8D10CBD00380240C8
:100890000070004008544007003C0240042808D182
:1008A0004FF0E021096941F004014FF0E0221161AD
:1008B00007E04FF0E021096921F004014FF0E02248
:1008C000116170477047000010B51548006840F48A
:1008D0007000134908601348006840F00100114996
:1008E000086000200F49083108600E4800680E4972
:1008F00008400C4908600D48091D0860081F006881
:1009000020F48020091F0860002006490C3108608F
:10091000FFF74EFF4FF0006001498039086010BDBD
:1009200088ED00E000380240FFFFF6FE10300024A2
:1009300010B540F225511D4800F03EF810B31B4899
:1009400000F064F8C4B21A48008800F40040C8B946
:100950001748008800F4804060B10A2C03D00020C2
:100960001349088020E01248008840F400401049F4
:10097000088019E00D2C06D10D48008840F4804015
:100980000B49088010E00A480088C0F30D000949AF
:100990000C5407480088401C054908800846008818
:1009A000C72801DD0020088010BD000000100140B4
:1009B00040080020440C002070B5024600240023AB
:1009C0000025002040F66A16B14200D100BFC1F3F5
:1009D000421501F01F03012606FA03F3012D02D18F
:1009E0009689334006E0022D02D1168A334001E099
:1009F000968A33400C12012606FA04F41688344015
:100A000013B10CB1012000E0002070BD01468888C0
:100A1000C0F30800704700BFFEE7014600BF704703
:100A20002DE9F04792B09348007800280CDD7F2034
:100A30000E90002009907F200F9000200A901090C7
:100A40000B9011900C9048E08B4800780E908B48EA
:100A5000007809908848007887494978C1EB4000C0
:100A60000F908648007885494978C1EB40000A908C
:100A70008349087800F0A6F97F490978082202FB2B
:100A8000001010907E49087800F0B0F97B49097891
:100A9000082202FB00100B90774A1279764B1B78E4
:100AA000D11A764A1279754B1B78D01A002801DBCF
:100AB000024600E04242002901DB0B4600E04B42C7
:100AC0001A44202A06DD6C48007811906B480078A3
:100AD0000C9002E0002011900C9001249DE06948E8
:100AE000005D00B197E068480068002801DD002043
:100AF00000E0FF20074600254FE0284600F062F99D
:100B00005D49095D00EB0108284600F06FF95B497B
:100B1000095D00EB01094946404600F061FD00B166
:100B200039E05948006820BB0DAB53F82430A8EBDE
:100B30000301002901DB0B4600E04B420DF1200CC4
:100B40005CF824C0A9EB0C00002801DB844601E01E
:100B5000C0F1000C03EB0C02284600F05BF9484999
:100B6000095D884200D11E32BA4201DA17462E468C
:100B700010E0FFF77FFB8246284600F04BF9404922
:100B8000095D884201D14FF0010ABA4501DD57469F
:100B90002E4600BF00BF681CC5B2042DADDBF0B20D
:100BA00000F010F93449095D084433490855F0B2A2
:100BB00000F01CF93149095D0844304908553049B5
:100BC0000E552D48005D2C490978884222D12B48CA
:100BD000005D2A49097888421CD12B48006800280A
:100BE00003DD01202749085513E0284828A10268A1
:100BF0006846FFF77BFB2AA20121022000F0A7F93B
:100C00006A460121032000F0A2F9012012B0BDE8DC
:100C1000F08700BF00BF601CC4B2042C7FF75FAF39
:100C200014480078012811D10020124908700024CE
:100C300009E004F13D01C8B201231C4A152100F06E
:100C400075FA601CC4B2052CF3DB08E00948007893
:100C5000002804DD07480078401E064908700A484D
:100C60000068002804DD08480068401E0649086046
:100C70000020CBE72C0800201008002015080020D9
:100C80001A0800201F080020280800203008002033
:100C9000596F75722073636F72653D2564000000A3
:100CA000596F7520646965642E0000000000002003
:100CB00010B500BFFC2000F00FFA00F0B5F80020DE
:100CC000B0F5004FF6D010BDF0B503460C46154602
:100CD0001946D81703EB5070C010102606FB04000D
:100CE000285C1A46DE1703EB5676F610A3EBC60611
:100CF000C6F107070126BE40304008B10120F0BD13
:100D00000020FCE710B504466FF00400FFF7C6FDB5
:100D1000E11704EB5171C1F3C701074A1170104686
:100D2000007800EB4001C1EBC0104FF6FF7101EA03
:100D3000C0000249088010BD360800203808002095
:100D400070B504464FF4077094FBF0F0C6B24FF450
:100D5000077094FBF0F100FB114085B205E04FF401
:100D6000077000F009F8701EC6B2002EF7D115B159
:100D7000284600F001F870BD0146114A12884A4326
:100D80004FF0E0235A6100229A611A46126942F03C
:100D900001021A6100BF4FF0E022106900F0010269
:100DA0001AB100F48032002AF5D04FF0E022126927
:100DB00022F001024FF0E0231A6100229A6170478D
:100DC00038080020014631B1012906D0022906D099
:100DD000032909D106E0002070470020FCE74FF00E
:100DE000FF30F9E70120F7E700BFF5E7014631B131
:100DF000012907D0022907D0032909D106E04FF0C5
:100E0000FF3070470120FCE70020FAE70020F8E7F8
:100E100000BFF6E708B5014602A0006800901DF883
:100E2000010008BD0100030270B500260025002462
:100E30001FE07006060E4FF480412448FFF708FCBF
:100E40001920FFF7A2FB4FF480412048FFF702FC76
:100E50001420FFF79AFB4FF480411C48FFF7F8FB82
:100E600008211B48FFF7EBFB08B1701CC6B2601CE1
:100E7000C4B2082CDDDB00241FE06806050E4FF429
:100E800080411248FFF7E4FB1920FFF77EFB4FF487
:100E900080410E48FFF7DEFB1920FFF776FB4FF489
:100EA00080410A48FFF7D4FB08210948FFF7C7FB38
:100EB00008B1681CC5B2601CC4B2082CDDDB06F0AA
:100EC000F00005F00F010844C0B270BD00140240EC
:100ED0000010024010B5012000F0EEF810BD10B572
:100EE00040F6FF70FFF751FB302000F0E5F80C20D2
:100EF00000F0E2F8012000F0DFF8022000F0DCF85A
:100F0000802000F0D9F810BD70B505460C46012DC3
:100F100006D0022D09D0032D0CD0042D14D10EE0E3
:100F200044F0800000F0C8F80FE044F0900000F0BA
:100F3000C3F80AE044F0880000F0BEF805E044F091
:100F4000980000F0B9F800E000BF00BF70BD2DE9C7
:100F5000F04106460F46144639463046FFF7D4FFA7
:100F6000002504E0605D00F061FA681CC5B2605DB8
:100F70000028F7D1BDE8F08170B5A820FFF7C2FEC8
:100F800000F08EF81420FFF7DBFEFFF7A3FF0A2026
:100F9000FFF7D6FEFFF762FB002549E000240121A0
:100FA0002548FFF743FB28B90021012000F04EFA45
:100FB00004461FE002212048FFF738FB28B9012131
:100FC000084600F043FA044614E004211A48FFF7EB
:100FD0002DFB28B90221012000F038FA044609E06F
:100FE00008211548FFF722FB20B90321012000F05A
:100FF0002DFA0446FFF714FD00F0DCF81420FFF78B
:101000009FFE012C04D14EF66020FFF799FE10E000
:101010000A2095FBF0F100FB115038B934B90748AC
:10102000FFF756FB4FF47A70FFF78AFE6D1C00BF86
:10103000B4E700BF002070BD00100240440800204B
:101040001CB501216020FFF7A1FB4FF44040009048
:1010500001208DF8040000208DF8060003208DF893
:10106000050001208DF8070069460B48FFF796FA46
:101070000220009001208DF8040000208DF8060069
:1010800003208DF8050001208DF80700694603480C
:10109000FFF784FA1CBD0000001402400018024053
:1010A00010B5FFF7CDFF02210248FFF7D3FAFFF793
:1010B00016FF10BD0018024010B50446FFF7F8FDFA
:1010C000F82000F009F804F0F00000F005F821071E
:1010D000080E00F001F810BD70B50446002520E0B0
:1010E00004F08000802803D101020F48FFF7B2FA14
:1010F00004F0800020B94FF400410B48FFF7A8FA34
:101100004FF480410848FFF7A3FA2320FFF73DFA88
:101110004FF480410448FFF79DFA6006040E681CF6
:10112000C5B2082DDCDB70BD00140240F0B50C46E2
:101130001546FBB10146C61700EB5676F610102790
:1011400007FB0466AE5D0246C71700EB5777FF103A
:10115000A0EBC707C7F1070C012707FA0CF73E43BE
:10116000C71700EB5777FF104FF0100C0CFB0477FC
:10117000EE551EE0C61700EB5676F610102707FB5B
:101180000466AE5D0246C71700EB5777FF10A0EB71
:10119000C707C7F1070C012707FA0CF7BE43014642
:1011A000C71700EB5777FF104FF0100C0CFB0477BC
:1011B000EE55F0BD10B5002007E06D49095C6D4AA1
:1011C000125C11436C4A1154401CB0F5806FF4DB83
:1011D000002478E06948005D012800D171E068488A
:1011E0000078C0F1010066490870664A115D664AE0
:1011F000105D0123604AFFF799FF624A125D521C9D
:10120000D1B2614A125D521CD0B201235A4AFFF793
:101210008DFF5C4A125D521ED1B25B4A125D521EB6
:10122000D0B20123544AFFF781FF564A125D521E85
:10123000D1B2554A125D521CD0B201234E4AFFF77B
:1012400075FF504A125D521CD1B24F4A125D521EB8
:10125000D0B20123484AFFF769FF4C48006838B113
:101260004A480068322802DA4548007800B13CBBA1
:10127000444A125D521CD1B2434A105D01233E4ADA
:10128000FFF754FF3F4A115D3F4A125D521ED0B234
:101290000123394AFFF74AFF3A4A115D3A4A125D83
:1012A000521CD0B20123344AFFF740FF354A125D89
:1012B000521ED1B2344A105D01232F4AFFF736FF88
:1012C00000BF601CC4B2052C84DB00244DE0304814
:1012D00000EB8400C07800B945E02D4A02EB84029F
:1012E00051782B4A12F824000123234AFFF71EFFEE
:1012F000274800EB84008078D0B1254A02EB8402B5
:101300005178234A12F82420521ED0B201231A4ADF
:10131000FFF70CFF1E4A02EB840251781C4A12F8B8
:101320002420521CD0B20123134AFFF7FFFE19E01C
:10133000174A02EB84025278521ED1B2144A12F8B4
:10134000240001230C4AFFF7F1FE114A02EB84024C
:101350005278521CD1B20E4A12F824000123064AD8
:10136000FFF7E4FE00BF601CC4B2042CAFDB10BD6D
:101370000004002000000020440800201F08002076
:10138000340800201508002010080020280800203C
:101390000008002030B504460D4601210EE01D482E
:1013A000405CA04208D11C48405CA84204D11B48C4
:1013B000405C08B9012030BD481CC1B20429EEDDF3
:1013C000174A29462046FFF77FFC08B10220F2E7C2
:1013D000144A29462046FFF777FC08B10320EAE7C4
:1013E000002113E0104810F82100A0420CD10E4853
:1013F00000EB81004078A84206D10B4800EB810049
:10140000C07808B10420D6E7481CC1B20429E9DB42
:101410000020D0E710080020150800201F08002039
:1014200000040020000000200008002010B5044641
:10143000FFF73EFCFA20FFF74FFE04F0F000FFF745
:101440004BFE2107080EFFF747FE10BD2DE9F041C6
:1014500088B007460E46002F72D03046FFF7B2FC28
:10146000504909780844C4B23046FFF7BFFC4E49E2
:1014700009780844C5B22946204600F0B1F8002892
:1014800070D129462046FFF785FF8046B8F1000F4E
:1014900049D0B8F1010F4DD0B8F1020F31D0B8F1F9
:1014A000040F7AD1002012E0404911F82010A14227
:1014B0000BD13E4901EB80014978A94205D10021B9
:1014C0003A4A02EB8002D17003E0411CC8B2042802
:1014D000EADB00BF012207E03549885CFFF79AFC90
:1014E00033498854501CC2B2042AF5DD2D480470DB
:1014F0002D4805702E4806704FF4FA702D4908608B
:101500004BE000232C4A29462046FFF70FFE2B48CC
:101510000068401C29490860224804702248057070
:101520002348067039E01F4804701F4805702048A2
:10153000067032E01F480068002819DD012014E021
:101540002EE01849095CA1420DD11749095CA94256
:1015500009D101211A4A1154184909681431174A4E
:10156000116004E01BE0411CC8B20428E9DD13E06F
:10157000124814A102686846FEF7B8FE15A20121C0
:101580000220FFF7E4FC6A4601210320FFF7DFFC9D
:10159000012008B0BDE8F08100BF00BF00BF00BF60
:1015A0000020F6E7100800201508002000080020A1
:1015B0001A0800202808002000040020300800201D
:1015C0001F080020596F75722073636F72653D2587
:1015D00064000000596F7520646965642E00000086
:1015E000F0B506460F466FF0010420E06FF00105EC
:1015F0001AE07A19D1B23219D0B2FFF7CBFE032824
:1016000001D10120F0BD3019002802DB30197F28FC
:1016100001DD0120F6E77819002802DB78193F2860
:1016200001DD0120EEE76D1C022DE2DD641C022CC1
:10163000DCDD0020E6E74FF04070E1EE100A704775
:10164000601600080000002044080000C4010008E3
:1016500028190008440800200C0C00002002000893
:1016600081F2820916104B7FFF015A830813400450
:101670002240222052010A3E041038104104104139
:10168000FFF820FF820FF81FFC107F10314380020B
:101690000B30104010110910104C041FE0BD1AF05F
:1016A000602910521019882A01100A1B01100A1B08
:1016B00004104AFF10177FF83FFC1040131FC01999
:1016C0006D1BFF040B11199829131B410435591088
:1016D0002908E910AA4010194029105B07F01011E1
:1016E0002B41FF10396B2950191E5D40041FC1109A
:1016F000113A041029F0891019550918102A1010F0
:101700004C1FC1FF6039631965214980DA7F1029B8
:101710003B0915109D7FFFFFFC104169209DFFF0E4
:101720007FFC10193A198839101960AA7F101948DE
:10173000110913108F07FFF83FE0FC10211C08204F
:10174000200D2910195F1AFF105B3FE010311A01BC
:10175000101119201A7F1CA910193B0A1340101BE5
:101760000782107BFFF0102A0410190D29101D04A8
:1017700010783F208A38101348201C82082810BD9A
:1017800041FC1FC11029E00913109808FE08383FDA
:10179000FFFFC130712A0160BB20E010219A2010A8
:1017A00029D70B1E2080102E0FF83FF07F605AFFC4
:1017B000202D0820104080219D1FFFFFE0101BFFFF
:1017C000F0208BFFF820012719570933201F0AA0AA
:1017D000A8055555031C542AAA0122A0D2022A08A2
:1017E000CD29C71240128012820A3220202E0AAA66
:1017F000A415505F3B8202601925C94063800439FB
:101800001BD9200A1D2A20122012081B8155C01B3B
:10181000AA0ABF191B2A8205691E29201913393DFE
:101820001948415A8040290D091E203B0AAA0D394A
:10183000D349201208ABAAA840E9203C05408053B8
:101840000913202AAA127D80082AA8609AA0201BCA
:10185000AAA08829206139409A2020110A2320203B
:101860005CAAAAAAC8091420591B6920491BC920CF
:101870003EA8AAAAA550254920592529201A0A5F61
:1018800012A012014A0445A9201CAAAA827A194C66
:101890000A142020496819041C2AAA812E09142040
:1018A000600A15525550201040AA04A920197B1631
:1018B00002802082014D201041012059C069401949
:1018C0005369201C02AAA8CBA92049F319201302AE
:1018D000A82B41013D0915200B160404202991492C
:1018E0002060095555525549555548AA102014A94C
:1018F00054041B40018F1208138008420AE2153974
:10190000BC59200110E3FFC0100B281701012B392F
:101910000101740C1B017A08000B123F383F463F4F
:081920003E1C1C1C21021714DF
:040000050800018965
:00000001FF
